81609130130003223000000010000000100000000000000000000 HE YUN ZU CHE GU FEN YOU XIAN GONG SI                                                                     
11609094380450138606404000405326340000000100HE YUN ZU CHE GU FEN YOU 7                                                                                          
81609130133300015000000010000002360000000000000000000 YANG GU MING                                                                                              
11609095520491009924789000400446820000002360YANG GU MING             7                             0                                                            
81609130133300138000000010000000560000000000000000000 TAI HE YUAN YI QI YE GU FEN YOU XIAN GON                                                                  
11609094563011009304807000400563420000000560TAI HE YUAN YI QI YE GU F7                                                                                          
81609130133300138000000010000004489000000000000000000 XUN YI CAO HUA FANG YOU XIAN GONG SI                                                                      
11609094311951804969301000400601270000004489XUN YI CAO HUA FANG YOU X7                                                                                          
81609130133300146000000010000002268000000000000000000 MEI ER KUAI SHI YE GU FEN YOU XIAN GONG                                                                   
11609094563011012937627000400982970000002268MEI ER KUAI SHI YE GU FEN7                                                                                          
81609130133300146000000040000008864000000000000000000 MEI ER KUAI SHI YE GU FEN YOU XIAN GONG                                                                   
11609095239537300482919000400863190000002724MEI ER KUAI SHI YE GU FEN7                             0                                                            
11609094311951047918909000400953460000003730MEI ER KUAI SHI YE GU FEN7                                                                                          
11609094311951042101741000400426410000001230MEI ER KUAI SHI YE GU FEN7                                                                                          
11609094563191017400043000400540810000001180MEI ER KUAI SHI YE GU FEN7                                                                                          
81609130133300146000000010000002780000000000000000000 MENG XIN YING                                                                                             
11609094563018103003292000400385630000002780MENG XIN YING            7                                                                                          
81609130133300146000000010000001080000000000000000000 CAI CHENG GUO JI YOU XIAN GONG SI                                                                         
11609095239531004349813000400198640000001080CAI CHENG GUO JI YOU XIAN7                             0                                                            
81609130133300201000000010000001100000000000000000000 YI LING YI YANG SHENG JIAN GUO GUAN                                                                       
11609094311951052329315000400507150000001100YI LING YI YANG SHENG JIA7                                                                                          
81609130133300219000000010000007200000000000000000000 QUE SI LV DIAN YOU XIAN GONG SI                                                                           
11609094182301007709961000400717920000007200QUE SI LV DIAN YOU XIAN G7                                                                                          
81609130133300222000000010000001271000000000000000000 WEI KEN KAI BO YOU XIAN GONG SI                                                                           
11609094477570042076891000407240090000001271WEI KEN KAI BO YOU XIAN G7                                                                                          
81609130133300255000000010000000500000000000000000000 CAI TUAN FA REN TIAN ZHU JIAO HUI JIA YI                                                                  
11609094311951060802287000400039130000000500CAI TUAN FA REN TIAN ZHU 7                                                                                          
81609134130000075000000080000040270000000000000000000 TONG XIAO XIU JIAN NONG CHANG GU FEN YOU                                                                  
11609094029875504681002000405948880000003060TONG XIAO XIU JIAN NONG C7                                                                                          
11609095188346192907004000405397600000005270TONG XIAO XIU JIAN NONG C7                             0                                                            
11609095179519100418709000400298780000004200TONG XIAO XIU JIAN NONG C7                             0                                                            
11609094147633702305107000405542550000004600TONG XIAO XIU JIAN NONG C7                                                                                          
11609094311780242529660000402784400000004600TONG XIAO XIU JIAN NONG C7                                                                                          
11609095425500001476733000406056840000007140TONG XIAO XIU JIAN NONG C7                             0                                                            
11609095148691002859294000408120000000004200TONG XIAO XIU JIAN NONG C7                             0                                                            
11609094311780239737672000409687640000007200TONG XIAO XIU JIAN NONG C7                                                                                          
81609139130000027000000010000002844000000000000000000 LI XIANG DA DE GU FEN YOU XIAN GONG SI                                                                    
11609094563186315783900000408284440000002844LI XIANG DA DE GU FEN YOU7                                                                                          
916091300000039                                                                                                                                                 